{
	"contracts/Ownable.sol": {
		"Ownable": {
			"abi": [
				{
					"inputs": [],
					"stateMutability": "payable",
					"type": "constructor"
				},
				{
					"anonymous": false,
					"inputs": [
						{
							"indexed": true,
							"internalType": "address",
							"name": "newOwner",
							"type": "address"
						},
						{
							"indexed": true,
							"internalType": "address",
							"name": "oldOwner",
							"type": "address"
						},
						{
							"indexed": false,
							"internalType": "string",
							"name": "message",
							"type": "string"
						}
					],
					"name": "changedOwner",
					"type": "event"
				},
				{
					"inputs": [
						{
							"internalType": "address payable",
							"name": "_newOwner",
							"type": "address"
						}
					],
					"name": "changeOwner",
					"outputs": [],
					"stateMutability": "nonpayable",
					"type": "function"
				}
			],
			"devdoc": {
				"details": "This contract sets up an ownership system. It allows for transferring ownership and restricting access to certain functions to the owner only.",
				"kind": "dev",
				"methods": {
					"changeOwner(address)": {
						"details": "Change the owner of the contract to a new address.",
						"params": {
							"_newOwner": "The address of the new owner. Emits a {changedOwner} event."
						}
					},
					"constructor": {
						"details": "Sets the initial owner of the contract to the address deploying the contract."
					}
				},
				"title": "Ownable",
				"version": 1
			},
			"evm": {
				"assembly": "    /* \"contracts/Ownable.sol\":245:1392  contract Ownable {... */\n  mstore(0x40, 0x80)\n    /* \"contracts/Ownable.sol\":548:558  msg.sender */\n  caller\n    /* \"contracts/Ownable.sol\":531:536  owner */\n  0x00\n  dup1\n    /* \"contracts/Ownable.sol\":531:559  owner = payable (msg.sender) */\n  0x0100\n  exp\n  dup2\n  sload\n  dup2\n  0xffffffffffffffffffffffffffffffffffffffff\n  mul\n  not\n  and\n  swap1\n  dup4\n  0xffffffffffffffffffffffffffffffffffffffff\n  and\n  mul\n  or\n  swap1\n  sstore\n  pop\n    /* \"contracts/Ownable.sol\":245:1392  contract Ownable {... */\n  dataSize(sub_0)\n  dup1\n  dataOffset(sub_0)\n  0x00\n  codecopy\n  0x00\n  return\nstop\n\nsub_0: assembly {\n        /* \"contracts/Ownable.sol\":245:1392  contract Ownable {... */\n      mstore(0x40, 0x80)\n      callvalue\n      dup1\n      iszero\n      tag_1\n      jumpi\n      0x00\n      dup1\n      revert\n    tag_1:\n      pop\n      jumpi(tag_2, lt(calldatasize, 0x04))\n      shr(0xe0, calldataload(0x00))\n      dup1\n      0xa6f9dae1\n      eq\n      tag_3\n      jumpi\n    tag_2:\n      0x00\n      dup1\n      revert\n        /* \"contracts/Ownable.sol\":1150:1390  function changeOwner(address  payable _newOwner)  public onlyOwner {... */\n    tag_3:\n      tag_4\n      0x04\n      dup1\n      calldatasize\n      sub\n      dup2\n      add\n      swap1\n      tag_5\n      swap2\n      swap1\n      tag_6\n      jump\t// in\n    tag_5:\n      tag_7\n      jump\t// in\n    tag_4:\n      stop\n    tag_7:\n        /* \"contracts/Ownable.sol\":712:722  msg.sender */\n      caller\n        /* \"contracts/Ownable.sol\":703:722  owner == msg.sender */\n      0xffffffffffffffffffffffffffffffffffffffff\n      and\n        /* \"contracts/Ownable.sol\":703:708  owner */\n      0x00\n      dup1\n      sload\n      swap1\n      0x0100\n      exp\n      swap1\n      div\n      0xffffffffffffffffffffffffffffffffffffffff\n      and\n        /* \"contracts/Ownable.sol\":703:722  owner == msg.sender */\n      0xffffffffffffffffffffffffffffffffffffffff\n      and\n      eq\n        /* \"contracts/Ownable.sol\":695:746  require(owner == msg.sender, \"You are not allowed\") */\n      tag_9\n      jumpi\n      mload(0x40)\n      0x08c379a000000000000000000000000000000000000000000000000000000000\n      dup2\n      mstore\n      0x04\n      add\n      tag_10\n      swap1\n      tag_11\n      jump\t// in\n    tag_10:\n      mload(0x40)\n      dup1\n      swap2\n      sub\n      swap1\n      revert\n    tag_9:\n        /* \"contracts/Ownable.sol\":1256:1257  0 */\n      0x00\n        /* \"contracts/Ownable.sol\":1235:1258  _newOwner != address(0) */\n      0xffffffffffffffffffffffffffffffffffffffff\n      and\n        /* \"contracts/Ownable.sol\":1235:1244  _newOwner */\n      dup2\n        /* \"contracts/Ownable.sol\":1235:1258  _newOwner != address(0) */\n      0xffffffffffffffffffffffffffffffffffffffff\n      and\n      sub\n        /* \"contracts/Ownable.sol\":1227:1278  require(_newOwner != address(0), \"Invalid address\") */\n      tag_13\n      jumpi\n      mload(0x40)\n      0x08c379a000000000000000000000000000000000000000000000000000000000\n      dup2\n      mstore\n      0x04\n      add\n      tag_14\n      swap1\n      tag_15\n      jump\t// in\n    tag_14:\n      mload(0x40)\n      dup1\n      swap2\n      sub\n      swap1\n      revert\n    tag_13:\n        /* \"contracts/Ownable.sol\":1318:1323  owner */\n      0x00\n      dup1\n      sload\n      swap1\n      0x0100\n      exp\n      swap1\n      div\n      0xffffffffffffffffffffffffffffffffffffffff\n      and\n        /* \"contracts/Ownable.sol\":1294:1355  changedOwner(_newOwner, owner, \"This owner has been changed\") */\n      0xffffffffffffffffffffffffffffffffffffffff\n      and\n        /* \"contracts/Ownable.sol\":1307:1316  _newOwner */\n      dup2\n        /* \"contracts/Ownable.sol\":1294:1355  changedOwner(_newOwner, owner, \"This owner has been changed\") */\n      0xffffffffffffffffffffffffffffffffffffffff\n      and\n      0x2318029305dbdc60cfa6dbcd6968cc7f3f946446b3e2d4b97c5feecb9b1ff5a9\n      mload(0x40)\n      tag_16\n      swap1\n      tag_17\n      jump\t// in\n    tag_16:\n      mload(0x40)\n      dup1\n      swap2\n      sub\n      swap1\n      log3\n        /* \"contracts/Ownable.sol\":1373:1382  _newOwner */\n      dup1\n        /* \"contracts/Ownable.sol\":1365:1370  owner */\n      0x00\n      dup1\n        /* \"contracts/Ownable.sol\":1365:1382  owner = _newOwner */\n      0x0100\n      exp\n      dup2\n      sload\n      dup2\n      0xffffffffffffffffffffffffffffffffffffffff\n      mul\n      not\n      and\n      swap1\n      dup4\n      0xffffffffffffffffffffffffffffffffffffffff\n      and\n      mul\n      or\n      swap1\n      sstore\n      pop\n        /* \"contracts/Ownable.sol\":1150:1390  function changeOwner(address  payable _newOwner)  public onlyOwner {... */\n      pop\n      jump\t// out\n        /* \"#utility.yul\":88:205   */\n    tag_19:\n        /* \"#utility.yul\":197:198   */\n      0x00\n        /* \"#utility.yul\":194:195   */\n      dup1\n        /* \"#utility.yul\":187:199   */\n      revert\n        /* \"#utility.yul\":334:460   */\n    tag_21:\n        /* \"#utility.yul\":371:378   */\n      0x00\n        /* \"#utility.yul\":411:453   */\n      0xffffffffffffffffffffffffffffffffffffffff\n        /* \"#utility.yul\":404:409   */\n      dup3\n        /* \"#utility.yul\":400:454   */\n      and\n        /* \"#utility.yul\":389:454   */\n      swap1\n      pop\n        /* \"#utility.yul\":334:460   */\n      swap2\n      swap1\n      pop\n      jump\t// out\n        /* \"#utility.yul\":466:570   */\n    tag_22:\n        /* \"#utility.yul\":511:518   */\n      0x00\n        /* \"#utility.yul\":540:564   */\n      tag_38\n        /* \"#utility.yul\":558:563   */\n      dup3\n        /* \"#utility.yul\":540:564   */\n      tag_21\n      jump\t// in\n    tag_38:\n        /* \"#utility.yul\":529:564   */\n      swap1\n      pop\n        /* \"#utility.yul\":466:570   */\n      swap2\n      swap1\n      pop\n      jump\t// out\n        /* \"#utility.yul\":576:714   */\n    tag_23:\n        /* \"#utility.yul\":657:689   */\n      tag_40\n        /* \"#utility.yul\":683:688   */\n      dup2\n        /* \"#utility.yul\":657:689   */\n      tag_22\n      jump\t// in\n    tag_40:\n        /* \"#utility.yul\":650:655   */\n      dup2\n        /* \"#utility.yul\":647:690   */\n      eq\n        /* \"#utility.yul\":637:708   */\n      tag_41\n      jumpi\n        /* \"#utility.yul\":704:705   */\n      0x00\n        /* \"#utility.yul\":701:702   */\n      dup1\n        /* \"#utility.yul\":694:706   */\n      revert\n        /* \"#utility.yul\":637:708   */\n    tag_41:\n        /* \"#utility.yul\":576:714   */\n      pop\n      jump\t// out\n        /* \"#utility.yul\":720:875   */\n    tag_24:\n        /* \"#utility.yul\":774:779   */\n      0x00\n        /* \"#utility.yul\":812:818   */\n      dup2\n        /* \"#utility.yul\":799:819   */\n      calldataload\n        /* \"#utility.yul\":790:819   */\n      swap1\n      pop\n        /* \"#utility.yul\":828:869   */\n      tag_43\n        /* \"#utility.yul\":863:868   */\n      dup2\n        /* \"#utility.yul\":828:869   */\n      tag_23\n      jump\t// in\n    tag_43:\n        /* \"#utility.yul\":720:875   */\n      swap3\n      swap2\n      pop\n      pop\n      jump\t// out\n        /* \"#utility.yul\":881:1226   */\n    tag_6:\n        /* \"#utility.yul\":948:954   */\n      0x00\n        /* \"#utility.yul\":997:999   */\n      0x20\n        /* \"#utility.yul\":985:994   */\n      dup3\n        /* \"#utility.yul\":976:983   */\n      dup5\n        /* \"#utility.yul\":972:995   */\n      sub\n        /* \"#utility.yul\":968:1000   */\n      slt\n        /* \"#utility.yul\":965:1084   */\n      iszero\n      tag_45\n      jumpi\n        /* \"#utility.yul\":1003:1082   */\n      tag_46\n      tag_19\n      jump\t// in\n    tag_46:\n        /* \"#utility.yul\":965:1084   */\n    tag_45:\n        /* \"#utility.yul\":1123:1124   */\n      0x00\n        /* \"#utility.yul\":1148:1209   */\n      tag_47\n        /* \"#utility.yul\":1201:1208   */\n      dup5\n        /* \"#utility.yul\":1192:1198   */\n      dup3\n        /* \"#utility.yul\":1181:1190   */\n      dup6\n        /* \"#utility.yul\":1177:1199   */\n      add\n        /* \"#utility.yul\":1148:1209   */\n      tag_24\n      jump\t// in\n    tag_47:\n        /* \"#utility.yul\":1138:1209   */\n      swap2\n      pop\n        /* \"#utility.yul\":1094:1219   */\n      pop\n        /* \"#utility.yul\":881:1226   */\n      swap3\n      swap2\n      pop\n      pop\n      jump\t// out\n        /* \"#utility.yul\":1232:1401   */\n    tag_25:\n        /* \"#utility.yul\":1316:1327   */\n      0x00\n        /* \"#utility.yul\":1350:1356   */\n      dup3\n        /* \"#utility.yul\":1345:1348   */\n      dup3\n        /* \"#utility.yul\":1338:1357   */\n      mstore\n        /* \"#utility.yul\":1390:1394   */\n      0x20\n        /* \"#utility.yul\":1385:1388   */\n      dup3\n        /* \"#utility.yul\":1381:1395   */\n      add\n        /* \"#utility.yul\":1366:1395   */\n      swap1\n      pop\n        /* \"#utility.yul\":1232:1401   */\n      swap3\n      swap2\n      pop\n      pop\n      jump\t// out\n        /* \"#utility.yul\":1407:1576   */\n    tag_26:\n        /* \"#utility.yul\":1547:1568   */\n      0x596f7520617265206e6f7420616c6c6f77656400000000000000000000000000\n        /* \"#utility.yul\":1543:1544   */\n      0x00\n        /* \"#utility.yul\":1535:1541   */\n      dup3\n        /* \"#utility.yul\":1531:1545   */\n      add\n        /* \"#utility.yul\":1524:1569   */\n      mstore\n        /* \"#utility.yul\":1407:1576   */\n      pop\n      jump\t// out\n        /* \"#utility.yul\":1582:1948   */\n    tag_27:\n        /* \"#utility.yul\":1724:1727   */\n      0x00\n        /* \"#utility.yul\":1745:1812   */\n      tag_51\n        /* \"#utility.yul\":1809:1811   */\n      0x13\n        /* \"#utility.yul\":1804:1807   */\n      dup4\n        /* \"#utility.yul\":1745:1812   */\n      tag_25\n      jump\t// in\n    tag_51:\n        /* \"#utility.yul\":1738:1812   */\n      swap2\n      pop\n        /* \"#utility.yul\":1821:1914   */\n      tag_52\n        /* \"#utility.yul\":1910:1913   */\n      dup3\n        /* \"#utility.yul\":1821:1914   */\n      tag_26\n      jump\t// in\n    tag_52:\n        /* \"#utility.yul\":1939:1941   */\n      0x20\n        /* \"#utility.yul\":1934:1937   */\n      dup3\n        /* \"#utility.yul\":1930:1942   */\n      add\n        /* \"#utility.yul\":1923:1942   */\n      swap1\n      pop\n        /* \"#utility.yul\":1582:1948   */\n      swap2\n      swap1\n      pop\n      jump\t// out\n        /* \"#utility.yul\":1954:2373   */\n    tag_11:\n        /* \"#utility.yul\":2120:2124   */\n      0x00\n        /* \"#utility.yul\":2158:2160   */\n      0x20\n        /* \"#utility.yul\":2147:2156   */\n      dup3\n        /* \"#utility.yul\":2143:2161   */\n      add\n        /* \"#utility.yul\":2135:2161   */\n      swap1\n      pop\n        /* \"#utility.yul\":2207:2216   */\n      dup2\n        /* \"#utility.yul\":2201:2205   */\n      dup2\n        /* \"#utility.yul\":2197:2217   */\n      sub\n        /* \"#utility.yul\":2193:2194   */\n      0x00\n        /* \"#utility.yul\":2182:2191   */\n      dup4\n        /* \"#utility.yul\":2178:2195   */\n      add\n        /* \"#utility.yul\":2171:2218   */\n      mstore\n        /* \"#utility.yul\":2235:2366   */\n      tag_54\n        /* \"#utility.yul\":2361:2365   */\n      dup2\n        /* \"#utility.yul\":2235:2366   */\n      tag_27\n      jump\t// in\n    tag_54:\n        /* \"#utility.yul\":2227:2366   */\n      swap1\n      pop\n        /* \"#utility.yul\":1954:2373   */\n      swap2\n      swap1\n      pop\n      jump\t// out\n        /* \"#utility.yul\":2379:2544   */\n    tag_28:\n        /* \"#utility.yul\":2519:2536   */\n      0x496e76616c696420616464726573730000000000000000000000000000000000\n        /* \"#utility.yul\":2515:2516   */\n      0x00\n        /* \"#utility.yul\":2507:2513   */\n      dup3\n        /* \"#utility.yul\":2503:2517   */\n      add\n        /* \"#utility.yul\":2496:2537   */\n      mstore\n        /* \"#utility.yul\":2379:2544   */\n      pop\n      jump\t// out\n        /* \"#utility.yul\":2550:2916   */\n    tag_29:\n        /* \"#utility.yul\":2692:2695   */\n      0x00\n        /* \"#utility.yul\":2713:2780   */\n      tag_57\n        /* \"#utility.yul\":2777:2779   */\n      0x0f\n        /* \"#utility.yul\":2772:2775   */\n      dup4\n        /* \"#utility.yul\":2713:2780   */\n      tag_25\n      jump\t// in\n    tag_57:\n        /* \"#utility.yul\":2706:2780   */\n      swap2\n      pop\n        /* \"#utility.yul\":2789:2882   */\n      tag_58\n        /* \"#utility.yul\":2878:2881   */\n      dup3\n        /* \"#utility.yul\":2789:2882   */\n      tag_28\n      jump\t// in\n    tag_58:\n        /* \"#utility.yul\":2907:2909   */\n      0x20\n        /* \"#utility.yul\":2902:2905   */\n      dup3\n        /* \"#utility.yul\":2898:2910   */\n      add\n        /* \"#utility.yul\":2891:2910   */\n      swap1\n      pop\n        /* \"#utility.yul\":2550:2916   */\n      swap2\n      swap1\n      pop\n      jump\t// out\n        /* \"#utility.yul\":2922:3341   */\n    tag_15:\n        /* \"#utility.yul\":3088:3092   */\n      0x00\n        /* \"#utility.yul\":3126:3128   */\n      0x20\n        /* \"#utility.yul\":3115:3124   */\n      dup3\n        /* \"#utility.yul\":3111:3129   */\n      add\n        /* \"#utility.yul\":3103:3129   */\n      swap1\n      pop\n        /* \"#utility.yul\":3175:3184   */\n      dup2\n        /* \"#utility.yul\":3169:3173   */\n      dup2\n        /* \"#utility.yul\":3165:3185   */\n      sub\n        /* \"#utility.yul\":3161:3162   */\n      0x00\n        /* \"#utility.yul\":3150:3159   */\n      dup4\n        /* \"#utility.yul\":3146:3163   */\n      add\n        /* \"#utility.yul\":3139:3186   */\n      mstore\n        /* \"#utility.yul\":3203:3334   */\n      tag_60\n        /* \"#utility.yul\":3329:3333   */\n      dup2\n        /* \"#utility.yul\":3203:3334   */\n      tag_29\n      jump\t// in\n    tag_60:\n        /* \"#utility.yul\":3195:3334   */\n      swap1\n      pop\n        /* \"#utility.yul\":2922:3341   */\n      swap2\n      swap1\n      pop\n      jump\t// out\n        /* \"#utility.yul\":3347:3524   */\n    tag_30:\n        /* \"#utility.yul\":3487:3516   */\n      0x54686973206f776e657220686173206265656e206368616e6765640000000000\n        /* \"#utility.yul\":3483:3484   */\n      0x00\n        /* \"#utility.yul\":3475:3481   */\n      dup3\n        /* \"#utility.yul\":3471:3485   */\n      add\n        /* \"#utility.yul\":3464:3517   */\n      mstore\n        /* \"#utility.yul\":3347:3524   */\n      pop\n      jump\t// out\n        /* \"#utility.yul\":3530:3896   */\n    tag_31:\n        /* \"#utility.yul\":3672:3675   */\n      0x00\n        /* \"#utility.yul\":3693:3760   */\n      tag_63\n        /* \"#utility.yul\":3757:3759   */\n      0x1b\n        /* \"#utility.yul\":3752:3755   */\n      dup4\n        /* \"#utility.yul\":3693:3760   */\n      tag_25\n      jump\t// in\n    tag_63:\n        /* \"#utility.yul\":3686:3760   */\n      swap2\n      pop\n        /* \"#utility.yul\":3769:3862   */\n      tag_64\n        /* \"#utility.yul\":3858:3861   */\n      dup3\n        /* \"#utility.yul\":3769:3862   */\n      tag_30\n      jump\t// in\n    tag_64:\n        /* \"#utility.yul\":3887:3889   */\n      0x20\n        /* \"#utility.yul\":3882:3885   */\n      dup3\n        /* \"#utility.yul\":3878:3890   */\n      add\n        /* \"#utility.yul\":3871:3890   */\n      swap1\n      pop\n        /* \"#utility.yul\":3530:3896   */\n      swap2\n      swap1\n      pop\n      jump\t// out\n        /* \"#utility.yul\":3902:4321   */\n    tag_17:\n        /* \"#utility.yul\":4068:4072   */\n      0x00\n        /* \"#utility.yul\":4106:4108   */\n      0x20\n        /* \"#utility.yul\":4095:4104   */\n      dup3\n        /* \"#utility.yul\":4091:4109   */\n      add\n        /* \"#utility.yul\":4083:4109   */\n      swap1\n      pop\n        /* \"#utility.yul\":4155:4164   */\n      dup2\n        /* \"#utility.yul\":4149:4153   */\n      dup2\n        /* \"#utility.yul\":4145:4165   */\n      sub\n        /* \"#utility.yul\":4141:4142   */\n      0x00\n        /* \"#utility.yul\":4130:4139   */\n      dup4\n        /* \"#utility.yul\":4126:4143   */\n      add\n        /* \"#utility.yul\":4119:4166   */\n      mstore\n        /* \"#utility.yul\":4183:4314   */\n      tag_66\n        /* \"#utility.yul\":4309:4313   */\n      dup2\n        /* \"#utility.yul\":4183:4314   */\n      tag_31\n      jump\t// in\n    tag_66:\n        /* \"#utility.yul\":4175:4314   */\n      swap1\n      pop\n        /* \"#utility.yul\":3902:4321   */\n      swap2\n      swap1\n      pop\n      jump\t// out\n\n    auxdata: 0xa2646970667358221220eb58a2d5ad948aaa7e666a6567080acba614c4bc2aefc1096706577b08e8b22c64736f6c634300081a0033\n}\n",
				"bytecode": {
					"linkReferences": {},
					"object": "6080604052335f806101000a81548173ffffffffffffffffffffffffffffffffffffffff021916908373ffffffffffffffffffffffffffffffffffffffff16021790555061040f806100505f395ff3fe608060405234801561000f575f80fd5b5060043610610029575f3560e01c8063a6f9dae11461002d575b5f80fd5b61004760048036038101906100429190610266565b610049565b005b3373ffffffffffffffffffffffffffffffffffffffff165f8054906101000a900473ffffffffffffffffffffffffffffffffffffffff1673ffffffffffffffffffffffffffffffffffffffff16146100d6576040517f08c379a00000000000000000000000000000000000000000000000000000000081526004016100cd906102eb565b60405180910390fd5b5f73ffffffffffffffffffffffffffffffffffffffff168173ffffffffffffffffffffffffffffffffffffffff1603610144576040517f08c379a000000000000000000000000000000000000000000000000000000000815260040161013b90610353565b60405180910390fd5b5f8054906101000a900473ffffffffffffffffffffffffffffffffffffffff1673ffffffffffffffffffffffffffffffffffffffff168173ffffffffffffffffffffffffffffffffffffffff167f2318029305dbdc60cfa6dbcd6968cc7f3f946446b3e2d4b97c5feecb9b1ff5a96040516101be906103bb565b60405180910390a3805f806101000a81548173ffffffffffffffffffffffffffffffffffffffff021916908373ffffffffffffffffffffffffffffffffffffffff16021790555050565b5f80fd5b5f73ffffffffffffffffffffffffffffffffffffffff82169050919050565b5f6102358261020c565b9050919050565b6102458161022b565b811461024f575f80fd5b50565b5f813590506102608161023c565b92915050565b5f6020828403121561027b5761027a610208565b5b5f61028884828501610252565b91505092915050565b5f82825260208201905092915050565b7f596f7520617265206e6f7420616c6c6f776564000000000000000000000000005f82015250565b5f6102d5601383610291565b91506102e0826102a1565b602082019050919050565b5f6020820190508181035f830152610302816102c9565b9050919050565b7f496e76616c6964206164647265737300000000000000000000000000000000005f82015250565b5f61033d600f83610291565b915061034882610309565b602082019050919050565b5f6020820190508181035f83015261036a81610331565b9050919050565b7f54686973206f776e657220686173206265656e206368616e67656400000000005f82015250565b5f6103a5601b83610291565b91506103b082610371565b602082019050919050565b5f6020820190508181035f8301526103d281610399565b905091905056fea2646970667358221220eb58a2d5ad948aaa7e666a6567080acba614c4bc2aefc1096706577b08e8b22c64736f6c634300081a0033",
					"opcodes": "PUSH1 0x80 PUSH1 0x40 MSTORE CALLER PUSH0 DUP1 PUSH2 0x100 EXP DUP2 SLOAD DUP2 PUSH20 0xFFFFFFFFFFFFFFFFFFFFFFFFFFFFFFFFFFFFFFFF MUL NOT AND SWAP1 DUP4 PUSH20 0xFFFFFFFFFFFFFFFFFFFFFFFFFFFFFFFFFFFFFFFF AND MUL OR SWAP1 SSTORE POP PUSH2 0x40F DUP1 PUSH2 0x50 PUSH0 CODECOPY PUSH0 RETURN INVALID PUSH1 0x80 PUSH1 0x40 MSTORE CALLVALUE DUP1 ISZERO PUSH2 0xF JUMPI PUSH0 DUP1 REVERT JUMPDEST POP PUSH1 0x4 CALLDATASIZE LT PUSH2 0x29 JUMPI PUSH0 CALLDATALOAD PUSH1 0xE0 SHR DUP1 PUSH4 0xA6F9DAE1 EQ PUSH2 0x2D JUMPI JUMPDEST PUSH0 DUP1 REVERT JUMPDEST PUSH2 0x47 PUSH1 0x4 DUP1 CALLDATASIZE SUB DUP2 ADD SWAP1 PUSH2 0x42 SWAP2 SWAP1 PUSH2 0x266 JUMP JUMPDEST PUSH2 0x49 JUMP JUMPDEST STOP JUMPDEST CALLER PUSH20 0xFFFFFFFFFFFFFFFFFFFFFFFFFFFFFFFFFFFFFFFF AND PUSH0 DUP1 SLOAD SWAP1 PUSH2 0x100 EXP SWAP1 DIV PUSH20 0xFFFFFFFFFFFFFFFFFFFFFFFFFFFFFFFFFFFFFFFF AND PUSH20 0xFFFFFFFFFFFFFFFFFFFFFFFFFFFFFFFFFFFFFFFF AND EQ PUSH2 0xD6 JUMPI PUSH1 0x40 MLOAD PUSH32 0x8C379A000000000000000000000000000000000000000000000000000000000 DUP2 MSTORE PUSH1 0x4 ADD PUSH2 0xCD SWAP1 PUSH2 0x2EB JUMP JUMPDEST PUSH1 0x40 MLOAD DUP1 SWAP2 SUB SWAP1 REVERT JUMPDEST PUSH0 PUSH20 0xFFFFFFFFFFFFFFFFFFFFFFFFFFFFFFFFFFFFFFFF AND DUP2 PUSH20 0xFFFFFFFFFFFFFFFFFFFFFFFFFFFFFFFFFFFFFFFF AND SUB PUSH2 0x144 JUMPI PUSH1 0x40 MLOAD PUSH32 0x8C379A000000000000000000000000000000000000000000000000000000000 DUP2 MSTORE PUSH1 0x4 ADD PUSH2 0x13B SWAP1 PUSH2 0x353 JUMP JUMPDEST PUSH1 0x40 MLOAD DUP1 SWAP2 SUB SWAP1 REVERT JUMPDEST PUSH0 DUP1 SLOAD SWAP1 PUSH2 0x100 EXP SWAP1 DIV PUSH20 0xFFFFFFFFFFFFFFFFFFFFFFFFFFFFFFFFFFFFFFFF AND PUSH20 0xFFFFFFFFFFFFFFFFFFFFFFFFFFFFFFFFFFFFFFFF AND DUP2 PUSH20 0xFFFFFFFFFFFFFFFFFFFFFFFFFFFFFFFFFFFFFFFF AND PUSH32 0x2318029305DBDC60CFA6DBCD6968CC7F3F946446B3E2D4B97C5FEECB9B1FF5A9 PUSH1 0x40 MLOAD PUSH2 0x1BE SWAP1 PUSH2 0x3BB JUMP JUMPDEST PUSH1 0x40 MLOAD DUP1 SWAP2 SUB SWAP1 LOG3 DUP1 PUSH0 DUP1 PUSH2 0x100 EXP DUP2 SLOAD DUP2 PUSH20 0xFFFFFFFFFFFFFFFFFFFFFFFFFFFFFFFFFFFFFFFF MUL NOT AND SWAP1 DUP4 PUSH20 0xFFFFFFFFFFFFFFFFFFFFFFFFFFFFFFFFFFFFFFFF AND MUL OR SWAP1 SSTORE POP POP JUMP JUMPDEST PUSH0 DUP1 REVERT JUMPDEST PUSH0 PUSH20 0xFFFFFFFFFFFFFFFFFFFFFFFFFFFFFFFFFFFFFFFF DUP3 AND SWAP1 POP SWAP2 SWAP1 POP JUMP JUMPDEST PUSH0 PUSH2 0x235 DUP3 PUSH2 0x20C JUMP JUMPDEST SWAP1 POP SWAP2 SWAP1 POP JUMP JUMPDEST PUSH2 0x245 DUP2 PUSH2 0x22B JUMP JUMPDEST DUP2 EQ PUSH2 0x24F JUMPI PUSH0 DUP1 REVERT JUMPDEST POP JUMP JUMPDEST PUSH0 DUP2 CALLDATALOAD SWAP1 POP PUSH2 0x260 DUP2 PUSH2 0x23C JUMP JUMPDEST SWAP3 SWAP2 POP POP JUMP JUMPDEST PUSH0 PUSH1 0x20 DUP3 DUP5 SUB SLT ISZERO PUSH2 0x27B JUMPI PUSH2 0x27A PUSH2 0x208 JUMP JUMPDEST JUMPDEST PUSH0 PUSH2 0x288 DUP5 DUP3 DUP6 ADD PUSH2 0x252 JUMP JUMPDEST SWAP2 POP POP SWAP3 SWAP2 POP POP JUMP JUMPDEST PUSH0 DUP3 DUP3 MSTORE PUSH1 0x20 DUP3 ADD SWAP1 POP SWAP3 SWAP2 POP POP JUMP JUMPDEST PUSH32 0x596F7520617265206E6F7420616C6C6F77656400000000000000000000000000 PUSH0 DUP3 ADD MSTORE POP JUMP JUMPDEST PUSH0 PUSH2 0x2D5 PUSH1 0x13 DUP4 PUSH2 0x291 JUMP JUMPDEST SWAP2 POP PUSH2 0x2E0 DUP3 PUSH2 0x2A1 JUMP JUMPDEST PUSH1 0x20 DUP3 ADD SWAP1 POP SWAP2 SWAP1 POP JUMP JUMPDEST PUSH0 PUSH1 0x20 DUP3 ADD SWAP1 POP DUP2 DUP2 SUB PUSH0 DUP4 ADD MSTORE PUSH2 0x302 DUP2 PUSH2 0x2C9 JUMP JUMPDEST SWAP1 POP SWAP2 SWAP1 POP JUMP JUMPDEST PUSH32 0x496E76616C696420616464726573730000000000000000000000000000000000 PUSH0 DUP3 ADD MSTORE POP JUMP JUMPDEST PUSH0 PUSH2 0x33D PUSH1 0xF DUP4 PUSH2 0x291 JUMP JUMPDEST SWAP2 POP PUSH2 0x348 DUP3 PUSH2 0x309 JUMP JUMPDEST PUSH1 0x20 DUP3 ADD SWAP1 POP SWAP2 SWAP1 POP JUMP JUMPDEST PUSH0 PUSH1 0x20 DUP3 ADD SWAP1 POP DUP2 DUP2 SUB PUSH0 DUP4 ADD MSTORE PUSH2 0x36A DUP2 PUSH2 0x331 JUMP JUMPDEST SWAP1 POP SWAP2 SWAP1 POP JUMP JUMPDEST PUSH32 0x54686973206F776E657220686173206265656E206368616E6765640000000000 PUSH0 DUP3 ADD MSTORE POP JUMP JUMPDEST PUSH0 PUSH2 0x3A5 PUSH1 0x1B DUP4 PUSH2 0x291 JUMP JUMPDEST SWAP2 POP PUSH2 0x3B0 DUP3 PUSH2 0x371 JUMP JUMPDEST PUSH1 0x20 DUP3 ADD SWAP1 POP SWAP2 SWAP1 POP JUMP JUMPDEST PUSH0 PUSH1 0x20 DUP3 ADD SWAP1 POP DUP2 DUP2 SUB PUSH0 DUP4 ADD MSTORE PUSH2 0x3D2 DUP2 PUSH2 0x399 JUMP JUMPDEST SWAP1 POP SWAP2 SWAP1 POP JUMP INVALID LOG2 PUSH5 0x6970667358 0x22 SLT KECCAK256 0xEB PC LOG2 0xD5 0xAD SWAP5 DUP11 0xAA PUSH31 0x666A6567080ACBA614C4BC2AEFC1096706577B08E8B22C64736F6C63430008 BYTE STOP CALLER "
				},
				"gasEstimates": {
					"creation": {
						"codeDepositCost": "207800",
						"executionCost": "24490",
						"totalCost": "232290"
					},
					"external": {
						"changeOwner(address)": "31590"
					},
					"internal": {
						"getOwner()": "infinite"
					}
				},
				"methodIdentifiers": {
					"changeOwner(address)": "a6f9dae1"
				}
			},
			"storageLayout": {
				"storage": [
					{
						"astId": 4,
						"contract": "contracts/Ownable.sol:Ownable",
						"label": "owner",
						"offset": 0,
						"slot": "0",
						"type": "t_address"
					}
				],
				"types": {
					"t_address": {
						"encoding": "inplace",
						"label": "address",
						"numberOfBytes": "20"
					}
				}
			},
			"userdoc": {
				"kind": "user",
				"methods": {},
				"version": 1
			}
		}
	}
}